{
  "contractName": "Election",
  "abi": [
    {
      "inputs": [],
      "stateMutability": "nonpayable",
      "type": "constructor"
    },
    {
      "inputs": [],
      "name": "candidate",
      "outputs": [
        {
          "internalType": "string",
          "name": "",
          "type": "string"
        }
      ],
      "stateMutability": "view",
      "type": "function",
      "constant": true
    },
    {
      "inputs": [
        {
          "internalType": "uint256",
          "name": "",
          "type": "uint256"
        }
      ],
      "name": "candidates",
      "outputs": [
        {
          "internalType": "uint256",
          "name": "id",
          "type": "uint256"
        },
        {
          "internalType": "string",
          "name": "name",
          "type": "string"
        },
        {
          "internalType": "uint256",
          "name": "voteCount",
          "type": "uint256"
        }
      ],
      "stateMutability": "view",
      "type": "function",
      "constant": true
    },
    {
      "inputs": [],
      "name": "candidatesCount",
      "outputs": [
        {
          "internalType": "uint256",
          "name": "",
          "type": "uint256"
        }
      ],
      "stateMutability": "view",
      "type": "function",
      "constant": true
    },
    {
      "inputs": [
        {
          "internalType": "address",
          "name": "",
          "type": "address"
        }
      ],
      "name": "voters",
      "outputs": [
        {
          "internalType": "bool",
          "name": "",
          "type": "bool"
        }
      ],
      "stateMutability": "view",
      "type": "function",
      "constant": true
    },
    {
      "inputs": [
        {
          "internalType": "uint256",
          "name": "_candidateId",
          "type": "uint256"
        }
      ],
      "name": "vote",
      "outputs": [],
      "stateMutability": "nonpayable",
      "type": "function"
    }
  ],
  "bytecode": "0x608060405234801561001057600080fd5b506100556040518060400160405280600b81526020017f43616e646964617465203100000000000000000000000000000000000000000081525061009e60201b60201c565b6100996040518060400160405280600b81526020017f43616e646964617465203200000000000000000000000000000000000000000081525061009e60201b60201c565b6102a5565b600260008154809291906100b1906101fe565b9190505550604051806060016040528060025481526020018281526020016000815250600080600254815260200190815260200160002060008201518160000155602082015181600101908051906020019061010e92919061011f565b506040820151816002015590505050565b82805461012b906101cc565b90600052602060002090601f01602090048101928261014d5760008555610194565b82601f1061016657805160ff1916838001178555610194565b82800160010185558215610194579182015b82811115610193578251825591602001919060010190610178565b5b5090506101a191906101a5565b5090565b5b808211156101be5760008160009055506001016101a6565b5090565b6000819050919050565b600060028204905060018216806101e457607f821691505b602082108114156101f8576101f7610276565b5b50919050565b6000610209826101c2565b91507fffffffffffffffffffffffffffffffffffffffffffffffffffffffffffffffff82141561023c5761023b610247565b5b600182019050919050565b7f4e487b7100000000000000000000000000000000000000000000000000000000600052601160045260246000fd5b7f4e487b7100000000000000000000000000000000000000000000000000000000600052602260045260246000fd5b6106c0806102b46000396000f3fe608060405234801561001057600080fd5b50600436106100575760003560e01c80630121b93f1461005c5780632d35a8a2146100785780633477ee2e146100965780636c8381f8146100c8578063a3ec138d146100e6575b600080fd5b610076600480360381019061007191906103c5565b610116565b005b61008061020c565b60405161008d9190610482565b60405180910390f35b6100b060048036038101906100ab91906103c5565b610212565b6040516100bf9392919061049d565b60405180910390f35b6100d06102c4565b6040516100dd9190610460565b60405180910390f35b61010060048036038101906100fb919061039c565b610352565b60405161010d9190610445565b60405180910390f35b600160003373ffffffffffffffffffffffffffffffffffffffff1673ffffffffffffffffffffffffffffffffffffffff16815260200190815260200160002060009054906101000a900460ff161561016d57600080fd5b60008111801561017e575060025481105b61018757600080fd5b60018060003373ffffffffffffffffffffffffffffffffffffffff1673ffffffffffffffffffffffffffffffffffffffff16815260200190815260200160002060006101000a81548160ff0219169083151502179055506000808281526020019081526020016000206002016000815480929190610204906105a4565b919050555050565b60025481565b600060205280600052604060002060009150905080600001549080600101805461023b90610572565b80601f016020809104026020016040519081016040528092919081815260200182805461026790610572565b80156102b45780601f10610289576101008083540402835291602001916102b4565b820191906000526020600020905b81548152906001019060200180831161029757829003601f168201915b5050505050908060020154905083565b600380546102d190610572565b80601f01602080910402602001604051908101604052809291908181526020018280546102fd90610572565b801561034a5780601f1061031f5761010080835404028352916020019161034a565b820191906000526020600020905b81548152906001019060200180831161032d57829003601f168201915b505050505081565b60016020528060005260406000206000915054906101000a900460ff1681565b6000813590506103818161065c565b92915050565b60008135905061039681610673565b92915050565b6000602082840312156103ae57600080fd5b60006103bc84828501610372565b91505092915050565b6000602082840312156103d757600080fd5b60006103e584828501610387565b91505092915050565b6103f781610509565b82525050565b6000610408826104db565b61041281856104e6565b935061042281856020860161053f565b61042b8161064b565b840191505092915050565b61043f81610535565b82525050565b600060208201905061045a60008301846103ee565b92915050565b6000602082019050818103600083015261047a81846103fd565b905092915050565b60006020820190506104976000830184610436565b92915050565b60006060820190506104b26000830186610436565b81810360208301526104c481856103fd565b90506104d36040830184610436565b949350505050565b600081519050919050565b600082825260208201905092915050565b600061050282610515565b9050919050565b60008115159050919050565b600073ffffffffffffffffffffffffffffffffffffffff82169050919050565b6000819050919050565b60005b8381101561055d578082015181840152602081019050610542565b8381111561056c576000848401525b50505050565b6000600282049050600182168061058a57607f821691505b6020821081141561059e5761059d61061c565b5b50919050565b60006105af82610535565b91507fffffffffffffffffffffffffffffffffffffffffffffffffffffffffffffffff8214156105e2576105e16105ed565b5b600182019050919050565b7f4e487b7100000000000000000000000000000000000000000000000000000000600052601160045260246000fd5b7f4e487b7100000000000000000000000000000000000000000000000000000000600052602260045260246000fd5b6000601f19601f8301169050919050565b610665816104f7565b811461067057600080fd5b50565b61067c81610535565b811461068757600080fd5b5056fea2646970667358221220040392ee557783ff7d709cc07840636af1326fc782fc805916714e78998f386164736f6c63430008040033",
  "immutableReferences": {},
  "source": "// SPDX-License-Identifier: MIT\r\npragma solidity ^0.8.4;\r\n \r\ncontract Election {\r\n    //Model a candidate\r\n    struct Candidate {\r\n        uint id;\r\n        string name;\r\n        uint voteCount;\r\n    }\r\n\r\n    //Store candidate\r\n    //Fetch Candidate\r\n    mapping(uint => Candidate) public candidates;\r\n\r\n    //Store voters\r\n    mapping(address => bool) public voters;\r\n\r\n    //Store Candidates Count\r\n    uint public candidatesCount;\r\n\r\n    //Read candidate, setting the state variable public automatically \r\n    //created a getter for it (e.g. app.candidate() gives 'Candidate 1')\r\n\r\n    string public candidate;\r\n\r\n    //Constructor\r\n    constructor () {\r\n        //State variable\r\n        //Add the addCandidate function inside the constructor, so it runs whenever the contracted is\r\n        //migrated or deployed\r\n\r\n        //This smart contract will be in charge of knowing how many candidates exist in the Election \r\n        addCandidate(\"Candidate 1\");\r\n        addCandidate(\"Candidate 2\");\r\n\r\n    }\r\n\r\n    //the underscore (_) means this is a local variable, not a state variable\r\n    function addCandidate (string memory _name) private {\r\n        candidatesCount ++;\r\n        candidates[candidatesCount] = Candidate(candidatesCount, _name, 0);\r\n    }   \r\n\r\n    function vote (uint _candidateId) public {\r\n        //Check for valid scenario\r\n        require(!voters[msg.sender]);\r\n        require(_candidateId > 0 && _candidateId < candidatesCount);\r\n        //msg is meta data about who sent the vote\r\n\r\n        //NOTE: ANY CODE BELOW THIS THAT ISN\"T REACHED DUE TO FAILURES OF THE REQUIRES, THE GAS WILL BE REFUNDED\r\n        //      ANY CODE ABOVE THAT HITS THE REQUIRES AND FAILS WILL NOT BE REFUNDED, AS THAT CODE WAS EXECUTED\r\n\r\n        //record that voter has added\r\n        voters[msg.sender] = true;\r\n        candidates[_candidateId].voteCount ++;\r\n    }\r\n}\r\n\r\n/**\r\n    Storage Types: memory, calldata, storage\r\n */",
  "sourcePath": "O:/Projects/votingDapp/contracts/Election.sol",
  "compiler": {
    "name": "solc",
    "version": "0.8.4+commit.c7e474f2.Emscripten.clang"
  },
  "schemaVersion": "3.4.1",
  "updatedAt": "2021-05-17T05:30:06.561Z",
  "networkType": "ethereum",
  "devdoc": {
    "kind": "dev",
    "methods": {},
    "version": 1
  },
  "userdoc": {
    "kind": "user",
    "methods": {},
    "version": 1
  }
}